S02B0000416E64726561732057656C6C79204F6374617669616E75735F333534313935315F4152424B56535F5A
S11300000C9434000C9451000C9451000C94A900ED
S11300100C9451000C9451000C9451000C94510018
S11300200C9451000C9451000C9451000C94510008
S11300300C9451000C9451000C9484000C945100C5
S11300400C9451000C9451000C9451000C945100E8
S11300500C9451000C9451000C9451000C945100D8
S11300600C9451000C94510011241FBECFEFD8E022
S1130070DEBFCDBF11E0A0E0B1E0ECEFF2E002C0E2
S113008005900D92A431B107D9F721E0A4E1B1E0C4
S113009001C01D92AC31B207E1F70E941C010C941F
S11300A07C010C940000F89481E08093680086E061
S11300B080936B0082E084BD93E095BD99EF97BD7A
S11300C080936E00789408950F931F930091140108
S11300D0109115012091160130911701AB01BC015B
S11300E0400F511F621F731F8091140190911501DD
S11300F0A0911601B0911701481759076A077B07A9
S113010099F71F910F9108951F920F920FB60F92B6
S113011011248F939F93AF93BF9380911401909177
S11301201501A0911601B09117010196A11DB11DF1
S11301308093140190931501A0931601B0931701B5
S1130140BF91AF919F918F910F900FBE0F901F9011
S113015018951F920F920FB60F9211248F939F93AD
S1130160AF93BF9319992CC08091180190911901F4
S1130170A0911A01B0911B01892B8A2B8B2B69F456
S113018083E690E0A0E0B0E0809318019093190119
S1130190A0931A01B0931B0113C080911801909190
S11301A01901A0911A01B0911B010197A109B1098C
S11301B08093180190931901A0931A01B0931B0125
S11301C01A9929C08091180190911901A0911A01DE
S11301D0B0911B0183369105A105B10549F4109234
S11301E018011092190110921A0110921B0113C0E8
S11301F08091180190911901A0911A01B0911B01ED
S11302000196A11DB11D8093180190931901A0932B
S11302101A01B0931B01BF91AF919F918F910F90E1
S11302200FBE0F901F9018958FEF8AB91BB881E00D
S113023084B986E085B908950E9414010E94530090
S11302400F2EFAE0CF2ED12CE12CF12CF02D609161
S113025018017091190180911A0190911B018090ED
S1130260180190901901A0901A01B0901B01A701E8
S113027096010E945A01CB010E944801C501B401B4
S1130280A70196010E945A01C9010E944801DFCFCB
S1130290880F991FFC01E050FF4F80818BB96AE001
S11302A070E080E090E00E94640095B181E08927CD
S11302B085B90895A1E21A2EAA1BBB1BFD010DC02E
S11302C0AA1FBB1FEE1FFF1FA217B307E407F50702
S11302D020F0A21BB30BE40BF50B661F771F881FDE
S11302E0991F1A9469F760957095809590959B0174
S10F02F0AC01BD01CF010895F894FFCFCC
S11302FC400079002400300019001200020078003C
S107030C00001000D9
S9030000FC
