S01100007072616B34746573742E7372656371
S11300000C9434000C945B000C9499000C945100F3
S11300100C9451000C9451000C9451000C94510018
S11300200C9451000C9451000C9451000C94510008
S11300300C9451000C9451000C9451000C945100F8
S11300400C9451000C9451000C9451000C945100E8
S11300500C9451000C9451000C9451000C945100D8
S11300600C9451000C94510011241FBECFEFD8E022
S1130070DEBFCDBF11E0A0E0B1E0EAE8F2E002C0EB
S113008005900D92A832B107D9F721E0A8E2B1E0BA
S113009001C01D92AC32B207E1F70E94DB000C9460
S11300A043010C940000F8948AE08093690083E093
S11300B08DBB789408951F920F920FB60F9211245E
S11300C08F939F93AF93BF938091280190912901BF
S11300D0A0912A01B0912B01892B8A2B8B2B69F4D7
S11300E083E690E0A0E0B0E080932801909329019A
S11300F0A0932A01B0932B0113C080912801909101
S11301002901A0912A01B0912B010197A109B109FC
S11301108093280190932901A0932A01B0932B0185
S1130120BF91AF919F918F910F900FBE0F901F9031
S113013018951F920F920FB60F9211248F939F93CD
S1130140AF93BF938091280190912901A0912A0136
S1130150B0912B0183369105A105B10549F41092A4
S113016028011092290110922A0110922B0113C028
S11301708091280190912901A0912A01B0912B012D
S11301800196A11DB11D8093280190932901A0938C
S11301902A01B0932B01BF91AF919F918F910F9042
S11301A00FBE0F901F90189583E08AB98CE08BB92D
S11301B08FEF84B908950E94D4000E9453000F2E3B
S11301C0FAE0CF2ED12CE12CF12CF02D60912801F6
S11301D07091290180912A0190912B01809028012E
S11301E090902901A0902A01B0902B01A7019601BB
S11301F00E942101CB010E940701C501B401A7019E
S113020096010E942101C9010E940701DFCF880FD6
S1130210991FFC01EC5EFE4F208125B9FC01E050E2
S1130220FF4F80818BB92FEF89EF90E02150804000
S11302309040E1F700C000009BB182E089278BB9B0
S11302400895A1E21A2EAA1BBB1BFD010DC0AA1F13
S1130250BB1FEE1FFF1FA217B307E407F50720F02B
S1130260A21BB30BE40BF50B661F771F881F991FA6
S11302701A9469F760957095809590959B01AC01EF
S10D0280BD01CF010895F894FFCFEB
S113028A010001000000000000000000000001005D
S113029A0000000000003900240030001900120098
S10B02AA0200380000002000EE
S9030000FC
