:100000000C9434000C9446000C9446000C9446006A
:100010000C9446000C9446000C9446000C94460048
:100020000C9446000C9446000C9446000C94460038
:100030000C9446000C9446000C94A0000C944600CE
:100040000C9446000C9446000C9446000C94460018
:100050000C9446000C9446000C9446000C94460008
:100060000C9446000C94460011241FBECFEFD8E03C
:10007000DEBFCDBF21E0A0E0B1E001C01D92A43001
:10008000B207E1F70E9486000C94C5000C940000B2
:1000900083E08AB91BB8089582E084BD93E095BDE2
:1000A0009AEF97BD80936E00789408950F931F93F5
:1000B0000091000110910101209102013091030192
:1000C000AB01BC01400F511F621F731F80910001E3
:1000D00090910101A0910201B091030148175907C5
:1000E0006A077B0799F71F910F910895AB01BC0137
:1000F0008091000190910101A0910201B091030152
:10010000481759076A077B0798F708950E94480027
:100110000E944C00C2E0CBB960ED77E080E090E057
:100120000E9476008BB1C827CBB9C1E064EF71E0C3
:1001300080E090E00E9456008BB18C278BB9F6CFFF
:100140001F920F920FB60F9211248F939F93AF932C
:10015000BF938091000190910101A0910201B091A3
:1001600003010196A11DB11D80930001909301012F
:10017000A0930201B0930301BF91AF919F918F9122
:0E0180000F900FBE0F901F901895F894FFCFB0
:00000001FF
