S00F0000506F6C6C696E672E7372656340
S11300000C9434000C9451000C9451000C94510045
S11300100C9451000C9451000C9451000C94510018
S11300200C9451000C9451000C9451000C94510008
S11300300C9451000C9451000C9451000C945100F8
S11300400C9451000C9451000C9451000C945100E8
S11300500C9451000C9451000C9451000C945100D8
S11300600C9451000C94510011241FBECFEFD8E022
S1130070DEBFCDBF11E0A0E0B1E0EAE8F1E002C0EC
S113008005900D92A230B107D9F721E0A2E0B1E0CA
S113009001C01D92A630B207E1F70E9459000C94EA
S11300A0C3000C9400001AB88FEF8BB984B915B84B
S11300B008950E94530081E090E061E052E04A9983
S11300C01AC02091000130910101232B59F4209191
S11300D002013091030141E024273093030120936E
S11300E0020101C063B910920101109200019093C2
S11300F00501809304014B991BC0209100013091AC
S113010001012130310559F420910201309103019C
S1130110E1E02E27309303012093020101C053B97B
S11301209093010180930001109205011092040143
S113013020910201309103012130310579F420919D
S113014000013091010145B1FC0102C0EE0FFF1F17
S11301502A95E2F79F01242725B90BC020910001BD
S113016030910101FC0102C0EE0FFF1F2A95E2F756
S1130170E5B9FFEF23EC39E0F15020403040E1F7DE
S10D018000C000009CCFF894FFCFEC
S105018A01006E
S9030000FC
