:100000000C9434000C9456000C9479000C94460027
:100010000C9446000C9446000C9446000C94460048
:100020000C9446000C9446000C9446000C94460038
:100030000C9446000C9446000C9446000C94460028
:100040000C9446000C9446000C9446000C94460018
:100050000C9446000C9446000C9446000C94460008
:100060000C9446000C94460011241FBECFEFD8E03C
:10007000DEBFCDBF21E0A0E0B1E001C01D92A43001
:10008000B207E1F70E949E000C94CE000C94000091
:100090001AB88FEF8BB984B915B80895F8948AE02F
:1000A0008093690083E08DBB789408951F920F922E
:1000B0000FB60F9211242F938F939F93189B0BC011
:1000C000809100019091010121E08227909301012C
:1000D0008093000102C081E085B910920301109263
:1000E00002019F918F912F910F900FBE0F901F9043
:1000F00018951F920F920FB60F9211242F938F9382
:100100009F93199B0BC0809100019091010121E008
:100110008227909301018093000102C082E085B99B
:1001200081E090E090930301809302019F918F9171
:100130002F910F900FBE0F901F9018950E944800AE
:100140000E944E0021E030E0809100019091010179
:10015000019779F4809102019091030145B1B901B1
:1001600002C0660F771F8A95E2F7CB01842785B915
:100170000BC08091020190910301A90102C0440FBC
:10018000551F8A95E2F745B95FEF63EC79E051506E
:1001900060407040E1F700C00000D6CFF894FFCF78
:00000001FF
